{
  "contractName": "ProductTraceability",
  "abi": [
    {
      "anonymous": false,
      "inputs": [
        {
          "indexed": false,
          "internalType": "uint256",
          "name": "id",
          "type": "uint256"
        },
        {
          "indexed": false,
          "internalType": "string",
          "name": "name",
          "type": "string"
        },
        {
          "indexed": false,
          "internalType": "string",
          "name": "description",
          "type": "string"
        },
        {
          "indexed": false,
          "internalType": "string",
          "name": "category",
          "type": "string"
        },
        {
          "indexed": false,
          "internalType": "string",
          "name": "image",
          "type": "string"
        },
        {
          "indexed": false,
          "internalType": "uint256",
          "name": "timestamp",
          "type": "uint256"
        }
      ],
      "name": "ProductAdded",
      "type": "event"
    },
    {
      "inputs": [],
      "name": "productCount",
      "outputs": [
        {
          "internalType": "uint256",
          "name": "",
          "type": "uint256"
        }
      ],
      "stateMutability": "view",
      "type": "function",
      "constant": true
    },
    {
      "inputs": [
        {
          "internalType": "uint256",
          "name": "",
          "type": "uint256"
        }
      ],
      "name": "products",
      "outputs": [
        {
          "internalType": "uint256",
          "name": "id",
          "type": "uint256"
        },
        {
          "internalType": "string",
          "name": "name",
          "type": "string"
        },
        {
          "internalType": "string",
          "name": "description",
          "type": "string"
        },
        {
          "internalType": "string",
          "name": "category",
          "type": "string"
        },
        {
          "internalType": "string",
          "name": "image",
          "type": "string"
        },
        {
          "internalType": "uint256",
          "name": "timestamp",
          "type": "uint256"
        }
      ],
      "stateMutability": "view",
      "type": "function",
      "constant": true
    },
    {
      "inputs": [
        {
          "internalType": "string",
          "name": "_name",
          "type": "string"
        },
        {
          "internalType": "string",
          "name": "_description",
          "type": "string"
        },
        {
          "internalType": "string",
          "name": "_category",
          "type": "string"
        },
        {
          "internalType": "string",
          "name": "_image",
          "type": "string"
        }
      ],
      "name": "addProduct",
      "outputs": [],
      "stateMutability": "nonpayable",
      "type": "function"
    },
    {
      "inputs": [
        {
          "internalType": "uint256",
          "name": "_id",
          "type": "uint256"
        }
      ],
      "name": "getProduct",
      "outputs": [
        {
          "internalType": "uint256",
          "name": "",
          "type": "uint256"
        },
        {
          "internalType": "string",
          "name": "",
          "type": "string"
        },
        {
          "internalType": "string",
          "name": "",
          "type": "string"
        },
        {
          "internalType": "string",
          "name": "",
          "type": "string"
        },
        {
          "internalType": "string",
          "name": "",
          "type": "string"
        },
        {
          "internalType": "uint256",
          "name": "",
          "type": "uint256"
        }
      ],
      "stateMutability": "view",
      "type": "function",
      "constant": true
    }
  ],
  "bytecode": "0x60806040526000805534801561001457600080fd5b50610f26806100246000396000f3fe608060405234801561001057600080fd5b506004361061004c5760003560e01c80637acc0b2014610051578063b9db15b414610086578063e0f6ef87146100bb578063fde74e81146100d9575b600080fd5b61006b600480360381019061006691906107bf565b6100f5565b60405161007d9695949392919061088b565b60405180910390f35b6100a0600480360381019061009b91906107bf565b610351565b6040516100b29695949392919061088b565b60405180910390f35b6100c361065d565b6040516100d09190610908565b60405180910390f35b6100f360048036038101906100ee9190610a58565b610663565b005b600160205280600052604060002060009150905080600001549080600101805461011e90610b5e565b80601f016020809104026020016040519081016040528092919081815260200182805461014a90610b5e565b80156101975780601f1061016c57610100808354040283529160200191610197565b820191906000526020600020905b81548152906001019060200180831161017a57829003601f168201915b5050505050908060020180546101ac90610b5e565b80601f01602080910402602001604051908101604052809291908181526020018280546101d890610b5e565b80156102255780601f106101fa57610100808354040283529160200191610225565b820191906000526020600020905b81548152906001019060200180831161020857829003601f168201915b50505050509080600301805461023a90610b5e565b80601f016020809104026020016040519081016040528092919081815260200182805461026690610b5e565b80156102b35780601f10610288576101008083540402835291602001916102b3565b820191906000526020600020905b81548152906001019060200180831161029657829003601f168201915b5050505050908060040180546102c890610b5e565b80601f01602080910402602001604051908101604052809291908181526020018280546102f490610b5e565b80156103415780601f1061031657610100808354040283529160200191610341565b820191906000526020600020905b81548152906001019060200180831161032457829003601f168201915b5050505050908060050154905086565b60006060806060806000808711801561036c57506000548711155b6103ab576040517f08c379a00000000000000000000000000000000000000000000000000000000081526004016103a290610bdb565b60405180910390fd5b6000600160008981526020019081526020016000206040518060c0016040529081600082015481526020016001820180546103e590610b5e565b80601f016020809104026020016040519081016040528092919081815260200182805461041190610b5e565b801561045e5780601f106104335761010080835404028352916020019161045e565b820191906000526020600020905b81548152906001019060200180831161044157829003601f168201915b5050505050815260200160028201805461047790610b5e565b80601f01602080910402602001604051908101604052809291908181526020018280546104a390610b5e565b80156104f05780601f106104c5576101008083540402835291602001916104f0565b820191906000526020600020905b8154815290600101906020018083116104d357829003601f168201915b5050505050815260200160038201805461050990610b5e565b80601f016020809104026020016040519081016040528092919081815260200182805461053590610b5e565b80156105825780601f1061055757610100808354040283529160200191610582565b820191906000526020600020905b81548152906001019060200180831161056557829003601f168201915b5050505050815260200160048201805461059b90610b5e565b80601f01602080910402602001604051908101604052809291908181526020018280546105c790610b5e565b80156106145780601f106105e957610100808354040283529160200191610614565b820191906000526020600020905b8154815290600101906020018083116105f757829003601f168201915b505050505081526020016005820154815250509050806000015181602001518260400151836060015184608001518560a001519650965096509650965096505091939550919395565b60005481565b60008081548092919061067590610c2a565b91905055506040518060c0016040528060005481526020018581526020018481526020018381526020018281526020014281525060016000805481526020019081526020016000206000820151816000015560208201518160010190816106dc9190610e1e565b5060408201518160020190816106f29190610e1e565b5060608201518160030190816107089190610e1e565b50608082015181600401908161071e9190610e1e565b5060a082015181600501559050507fc80d8977eb21bc7ae81efad32286b6030afbbf2efdb146c4949d55849fa2670760005485858585426040516107679695949392919061088b565b60405180910390a150505050565b6000604051905090565b600080fd5b600080fd5b6000819050919050565b61079c81610789565b81146107a757600080fd5b50565b6000813590506107b981610793565b92915050565b6000602082840312156107d5576107d461077f565b5b60006107e3848285016107aa565b91505092915050565b6107f581610789565b82525050565b600081519050919050565b600082825260208201905092915050565b60005b8381101561083557808201518184015260208101905061081a565b60008484015250505050565b6000601f19601f8301169050919050565b600061085d826107fb565b6108678185610806565b9350610877818560208601610817565b61088081610841565b840191505092915050565b600060c0820190506108a060008301896107ec565b81810360208301526108b28188610852565b905081810360408301526108c68187610852565b905081810360608301526108da8186610852565b905081810360808301526108ee8185610852565b90506108fd60a08301846107ec565b979650505050505050565b600060208201905061091d60008301846107ec565b92915050565b600080fd5b600080fd5b7f4e487b7100000000000000000000000000000000000000000000000000000000600052604160045260246000fd5b61096582610841565b810181811067ffffffffffffffff821117156109845761098361092d565b5b80604052505050565b6000610997610775565b90506109a3828261095c565b919050565b600067ffffffffffffffff8211156109c3576109c261092d565b5b6109cc82610841565b9050602081019050919050565b82818337600083830152505050565b60006109fb6109f6846109a8565b61098d565b905082815260208101848484011115610a1757610a16610928565b5b610a228482856109d9565b509392505050565b600082601f830112610a3f57610a3e610923565b5b8135610a4f8482602086016109e8565b91505092915050565b60008060008060808587031215610a7257610a7161077f565b5b600085013567ffffffffffffffff811115610a9057610a8f610784565b5b610a9c87828801610a2a565b945050602085013567ffffffffffffffff811115610abd57610abc610784565b5b610ac987828801610a2a565b935050604085013567ffffffffffffffff811115610aea57610ae9610784565b5b610af687828801610a2a565b925050606085013567ffffffffffffffff811115610b1757610b16610784565b5b610b2387828801610a2a565b91505092959194509250565b7f4e487b7100000000000000000000000000000000000000000000000000000000600052602260045260246000fd5b60006002820490506001821680610b7657607f821691505b602082108103610b8957610b88610b2f565b5b50919050565b7f50726f6475637420646f6573206e6f7420657869737400000000000000000000600082015250565b6000610bc5601683610806565b9150610bd082610b8f565b602082019050919050565b60006020820190508181036000830152610bf481610bb8565b9050919050565b7f4e487b7100000000000000000000000000000000000000000000000000000000600052601160045260246000fd5b6000610c3582610789565b91507fffffffffffffffffffffffffffffffffffffffffffffffffffffffffffffffff8203610c6757610c66610bfb565b5b600182019050919050565b60008190508160005260206000209050919050565b60006020601f8301049050919050565b600082821b905092915050565b600060088302610cd47fffffffffffffffffffffffffffffffffffffffffffffffffffffffffffffffff82610c97565b610cde8683610c97565b95508019841693508086168417925050509392505050565b6000819050919050565b6000610d1b610d16610d1184610789565b610cf6565b610789565b9050919050565b6000819050919050565b610d3583610d00565b610d49610d4182610d22565b848454610ca4565b825550505050565b600090565b610d5e610d51565b610d69818484610d2c565b505050565b5b81811015610d8d57610d82600082610d56565b600181019050610d6f565b5050565b601f821115610dd257610da381610c72565b610dac84610c87565b81016020851015610dbb578190505b610dcf610dc785610c87565b830182610d6e565b50505b505050565b600082821c905092915050565b6000610df560001984600802610dd7565b1980831691505092915050565b6000610e0e8383610de4565b9150826002028217905092915050565b610e27826107fb565b67ffffffffffffffff811115610e4057610e3f61092d565b5b610e4a8254610b5e565b610e55828285610d91565b600060209050601f831160018114610e885760008415610e76578287015190505b610e808582610e02565b865550610ee8565b601f198416610e9686610c72565b60005b82811015610ebe57848901518255600182019150602085019450602081019050610e99565b86831015610edb5784890151610ed7601f891682610de4565b8355505b6001600288020188555050505b50505050505056fea264697066735822122078a2a47d07ddccf0baf1167a9170cdd774062a60c2185609cb84c4913b0e1e3164736f6c63430008130033",
  "immutableReferences": {},
  "source": "// ProductTraceability.sol\r\npragma solidity ^0.8.19;\r\n\r\ncontract ProductTraceability {\r\n    struct ProductInfo {\r\n        uint id;              // ID unique du produit\r\n        string name;          // Nom du produit\r\n        string description;   // Description du produit\r\n        string category;      // Catgorie du produit\r\n        string image;         // URL ou hash de l'image du produit\r\n        uint timestamp;       // Date de cration (timestamp)\r\n    }\r\n\r\n    // Compteur pour les ID des produits\r\n    uint public productCount = 0;\r\n    \r\n    // Mapping pour stocker les produits par ID\r\n    mapping(uint => ProductInfo) public products;\r\n\r\n    // vnement dclench lorsqu'un produit est ajout\r\n    event ProductAdded(\r\n        uint id,\r\n        string name,\r\n        string description,\r\n        string category,\r\n        string image,\r\n        uint timestamp\r\n    );\r\n\r\n    // Fonction pour ajouter un produit\r\n    function addProduct(\r\n        string memory _name,\r\n        string memory _description,\r\n        string memory _category,\r\n        string memory _image\r\n    ) public {\r\n        // Incrmentation du compteur pour gnrer un nouvel ID\r\n        productCount++;\r\n        \r\n        // Stockage du produit avec l'ID incrment\r\n        products[productCount] = ProductInfo(\r\n            productCount,\r\n            _name,\r\n            _description,\r\n            _category,\r\n            _image,\r\n            block.timestamp\r\n        );\r\n        \r\n        // mission de l'vnement\r\n        emit ProductAdded(\r\n            productCount,\r\n            _name,\r\n            _description,\r\n            _category,\r\n            _image,\r\n            block.timestamp\r\n        );\r\n    }\r\n\r\n    // Fonction pour rcuprer un produit par ID\r\n    function getProduct(uint _id) public view returns (\r\n        uint,\r\n        string memory,\r\n        string memory,\r\n        string memory,\r\n        string memory,\r\n        uint\r\n    ) {\r\n        // Vrification que l'ID existe\r\n        require(_id > 0 && _id <= productCount, \"Product does not exist\");\r\n        \r\n        // Rcupration du produit\r\n        ProductInfo memory product = products[_id];\r\n        \r\n        return (\r\n            product.id,\r\n            product.name,\r\n            product.description,\r\n            product.category,\r\n            product.image,\r\n            product.timestamp\r\n        );\r\n    }\r\n}\r\n",
  "sourcePath": "C:\\Users\\debgn\\product_traceability\\contracts\\ProductTraceability.sol",
  "compiler": {
    "name": "solc",
    "version": "0.8.19+commit.7dd6d404.Emscripten.clang"
  },
  "schemaVersion": "3.4.16",
  "updatedAt": "2024-12-12T19:37:18.656Z",
  "networkType": "ethereum",
  "devdoc": {
    "kind": "dev",
    "methods": {},
    "version": 1
  },
  "userdoc": {
    "kind": "user",
    "methods": {},
    "version": 1
  }
}